:0300000002090AE8
:0C090A00787FE4F6D8FD75811F020951CA
:100AD70048756D6964697479200054656D70657235
:100AE7006174757265004572726F72004C434420E1
:100AF700696E69742E2E0044495354414E43453A5A
:010B070000ED
:040C1C0002080000CA
:100B5B00D2927F38120BF1120BA37F0C120BF112F6
:100B6B000BA37F01120BF1120BA37F06120BF112D9
:050B7B000BA3C2922251
:100BF100D2B1C2B08FA07F017E00120BA7C2B12279
:0B0BC2007C007D0A1209AFED2430FF1B
:100BCD00D2B1D2B08FA07F017E00120BA7C2B1228D
:100B80008B1D8A1E891FAB1DAA1EA91F120996FF65
:100B90006010120BCD7401251FF51FE4351EF51EE4
:030BA00080E422CC
:040BA3007F057E004C
:100BA700E4FDEDC39FE49E5011E4FBFA0BBB00018B
:0A0BB7000AEB64724A70F50D80E845
:010BC1002211
:100B320000000000000000000000000000000000B3
:100B420000000000000000000000000000000000A3
:090B520000000000000000002278
:080C1400C2B4120B32D2B4226B
:0A0C010020B4FD30B4FD20B4FD2244
:100B0800E4FFFEFDFC30B4FD120B32EF25E0FFEEF2
:100B180033FE30B406EF4401FF800020B4FD0DBD64
:090B280000010CED64084C70DCC6
:010B310022A1
:100800007F01120BF17F80120BF17BFF7A0A79D7FF
:10081000120B807FC0120BF17BFF7A0A79E1120B79
:1008200080120C14120C01120B088E118F12120B75
:10083000088E0D8F0E120B088E0F8F10120B088E64
:100840000B8F0C120B088E138F14E512250ECFE5BB
:1008500011350DCF2510CF350FCF250CCF350BFE21
:10086000EF65147003EE651360097BFF7A0A79ED7A
:10087000020B80AE11AF127C007D0A1209AFEF248B
:1008800030F516E43EF515AE11AF127C007D0A126C
:1008900009AFED2430F518E43CF5177F89120BF110
:1008A000AF16120BCD7F8A120BF1AF18120BCD7F52
:1008B0008B120BF17F25120BCDAE0FAF107C007D9C
:1008C0000A1209AFEF2430F51AE43EF519AE0FAF66
:1008D000107C007D0A1209AFED2430F51CE43CF5D4
:1008E0001B7FCC120BF1AF1A120BCD7FCD120BF187
:1008F000AF1C120BCD7FCE120BF17FDF120BCD7F21
:09090000CF120BF17F43120BCD65
:0109090022CB
:100BDD00E4F58CF58AD2B50000000000000000009D
:040BED0000C2B5226B
:100A9A00120BDD30B3FD20B3FD858C83858A827508
:100AAA008AFF758CFFAF82AE83E4FCFD7B707A947B
:100ABA00F9F8D3120A04400FAF82AE837C007D3B63
:0C0ACA001209AF8F158003E4F515AF157D
:010AD60022FD
:090C0B00309303D29222C292221E
:100A1A00120B5B7F01120BF17F80120BF17BFF7AC5
:100A2A000A79F3120B80805A209051758909E4F5EE
:100A3A008AF58CD28C7F01120BF17BFF7A0A79FE40
:100A4A00120B8043B0047F8A120BF1120A9A7508BE
:100A5A00008F09AE087C007D641209AFEF2430FFD5
:100A6A00120BCDAE08AF097C007D0A1209AF120B3A
:100A7A00C2AE08AF09120BC27FC8800820910C12BF
:100A8A0008007F647E00120BA7809D120C0B8098D1
:10091600020A1AE493A3F8E493A34003F68001F2D3
:1009260008DFF48029E493A3F85407240CC8C333E2
:10093600C4540F4420C8834004F456800146F6DFB1
:10094600E4800B0102040810204080900C1CE47E19
:10095600019360BCA3FF543F30E509541FFEE493A6
:10096600A360010ECF54C025E060A840B8E493A36D
:10097600FAE493A3F8E493A3C8C582C8CAC583CA98
:10098600F0A3C8C582C8CAC583CADFE9DEE780BE50
:010C200000D3
:10099600BB010689828A83E0225002E722BBFE025F
:0909A600E32289828A83E4932292
:1009AF00BC000BBE0029EF8DF084FFADF022E4CC2C
:1009BF00F875F008EF2FFFEE33FEEC33FCEE9DECF5
:1009CF00984005FCEE9DFE0FD5F0E9E4CEFD22ED3B
:1009DF00F8F5F0EE8420D21CFEADF075F008EF2F85
:1009EF00FFED33FD4007985006D5F0F222C398FD76
:0509FF000FD5F0EA2213
:100A0400EB9FF5F0EA9E42F0E99D42F0EC6480C869
:060A140064809845F02209
:00000001FF
